{
  "_format": "hh-sol-artifact-1",
  "contractName": "SwapNft",
  "sourceName": "contracts/SwapNft.sol",
  "abi": [
    {
      "anonymous": false,
      "inputs": [
        {
          "indexed": false,
          "internalType": "uint256",
          "name": "swapId",
          "type": "uint256"
        }
      ],
      "name": "SwapCancelled",
      "type": "event"
    },
    {
      "anonymous": false,
      "inputs": [
        {
          "indexed": false,
          "internalType": "uint256",
          "name": "swapId",
          "type": "uint256"
        }
      ],
      "name": "SwapCompleted",
      "type": "event"
    },
    {
      "anonymous": false,
      "inputs": [
        {
          "indexed": false,
          "internalType": "uint256",
          "name": "swapId",
          "type": "uint256"
        },
        {
          "indexed": false,
          "internalType": "address",
          "name": "initiator",
          "type": "address"
        },
        {
          "indexed": false,
          "internalType": "address[]",
          "name": "initiatorNftContracts",
          "type": "address[]"
        },
        {
          "indexed": false,
          "internalType": "uint256[]",
          "name": "initiatorTokenIds",
          "type": "uint256[]"
        },
        {
          "indexed": false,
          "internalType": "uint256[]",
          "name": "initiatorTokenCounts",
          "type": "uint256[]"
        },
        {
          "indexed": false,
          "internalType": "address",
          "name": "counterparty",
          "type": "address"
        },
        {
          "indexed": false,
          "internalType": "address[]",
          "name": "counterpartyNftContracts",
          "type": "address[]"
        },
        {
          "indexed": false,
          "internalType": "uint256[]",
          "name": "counterpartyTokenIds",
          "type": "uint256[]"
        },
        {
          "indexed": false,
          "internalType": "uint256[]",
          "name": "counterpartyTokenCounts",
          "type": "uint256[]"
        }
      ],
      "name": "SwapInitiated",
      "type": "event"
    },
    {
      "inputs": [
        {
          "internalType": "uint256",
          "name": "_swapId",
          "type": "uint256"
        }
      ],
      "name": "cancelSwap",
      "outputs": [],
      "stateMutability": "nonpayable",
      "type": "function"
    },
    {
      "inputs": [
        {
          "internalType": "uint256",
          "name": "_swapId",
          "type": "uint256"
        }
      ],
      "name": "completeSwap",
      "outputs": [],
      "stateMutability": "nonpayable",
      "type": "function"
    },
    {
      "inputs": [
        {
          "internalType": "address",
          "name": "_counterparty",
          "type": "address"
        },
        {
          "internalType": "address[]",
          "name": "_initiatorNftContracts",
          "type": "address[]"
        },
        {
          "internalType": "uint256[]",
          "name": "_initiatorTokenIds",
          "type": "uint256[]"
        },
        {
          "internalType": "uint256[]",
          "name": "_initiatorTokenCounts",
          "type": "uint256[]"
        },
        {
          "internalType": "address[]",
          "name": "_counterpartyNftContracts",
          "type": "address[]"
        },
        {
          "internalType": "uint256[]",
          "name": "_counterpartyTokenIds",
          "type": "uint256[]"
        },
        {
          "internalType": "uint256[]",
          "name": "_counterpartyTokenCounts",
          "type": "uint256[]"
        }
      ],
      "name": "initiateSwap",
      "outputs": [],
      "stateMutability": "nonpayable",
      "type": "function"
    },
    {
      "inputs": [
        {
          "internalType": "address",
          "name": "",
          "type": "address"
        },
        {
          "internalType": "address",
          "name": "",
          "type": "address"
        },
        {
          "internalType": "uint256",
          "name": "",
          "type": "uint256"
        },
        {
          "internalType": "bytes",
          "name": "",
          "type": "bytes"
        }
      ],
      "name": "onERC721Received",
      "outputs": [
        {
          "internalType": "bytes4",
          "name": "",
          "type": "bytes4"
        }
      ],
      "stateMutability": "nonpayable",
      "type": "function"
    },
    {
      "inputs": [],
      "name": "swapCounter",
      "outputs": [
        {
          "internalType": "uint256",
          "name": "",
          "type": "uint256"
        }
      ],
      "stateMutability": "view",
      "type": "function"
    },
    {
      "inputs": [
        {
          "internalType": "uint256",
          "name": "",
          "type": "uint256"
        }
      ],
      "name": "swaps",
      "outputs": [
        {
          "internalType": "address",
          "name": "initiator",
          "type": "address"
        },
        {
          "internalType": "address",
          "name": "counterparty",
          "type": "address"
        },
        {
          "internalType": "bool",
          "name": "isCompleted",
          "type": "bool"
        }
      ],
      "stateMutability": "view",
      "type": "function"
    }
  ],
  "bytecode": "0x6080806040523461001657610f73908161001c8239f35b600080fdfe60e080604052600436101561001357600080fd5b60003560e01c908163150b7a0214610c1357508063331ccd4c1461098057806333bce8c31461096257806354d6a2b7146107b25780638261f581146100b95763f09c58291461006157600080fd5b346100b45760203660031901126100b45760043560005260006020526060604060002060018060a01b039060ff600883835416936001840154169201541690604051928352602083015215156040820152f35b600080fd5b346100b45760e03660031901126100b4576100d2610cae565b6024356001600160401b0381116100b4576100f1903690600401610d0c565b6044356001600160401b0381116100b457610110903690600401610d0c565b9060c052926064356001600160401b0381116100b457610134903690600401610d0c565b9060a052906084356001600160401b0381116100b457610158903690600401610d0c565b919060a4356001600160401b0381116100b457610179903690600401610d0c565b91909260c4356001600160401b0381116100b45761019b903690600401610d0c565b95909680890361075f57868203610709576000806080525b89608051106106145750604051806101208101106001600160401b03610120830111176105885761012081016040523381526001600160a01b03841660208201526101ff368b8d610dfb565b6040820152610211368d60c051610e51565b6060820152610223368360a051610e51565b6080820152610233368487610dfb565b60a0820152610243368789610e51565b60c082015261025336898b610e51565b60e082015260006101008201526001546000526000602052604060002060018060a01b038251166bffffffffffffffffffffffff60a01b9081835416178255600182019060018060a01b036020850151169082541617905560408201518051906001600160401b03821161058857600160401b821161058857600283018054838255602092916102e4918591610e9f565b0160028301600052602060002060005b8381106105f75750505050600381016060830151908151916001600160401b03831161058857600160401b83116105885760209061033784845481865585610e9f565b0190600052602060002060005b8381106105e35750505050600481016080830151908151916001600160401b03831161058857600160401b83116105885760209061038784845481865585610e9f565b0190600052602060002060005b8381106105cf57505050506005810160a0830151908151916001600160401b03831161058857600160401b8311610588576020906103d784845481865585610e9f565b0190600052602060002060005b8381106105b257505050506006810160c0830151908151916001600160401b03831161058857600160401b83116105885760209061042784845481865585610e9f565b0190600052602060002060005b83811061059e57505050506007810160e0830151908151916001600160401b03831161058857600160401b83116105885760209061047784845481865585610e9f565b0190600052602060002060005b8381106105745750505050600801906101000151151560ff198254169060ff161790556001549a6040519a8b9a8d8c523360208d015260408c0161012090526101208c01906104d292610ed5565b8a810360608c015260c051916104e792610f19565b89810360808b015260a051916104fc92610f19565b6001600160a01b0390921660a089015287820360c089015261051d92610ed5565b9085820360e087015261052f92610f19565b9083820361010085015261054292610f19565b037f727d55230cb396539626c981e98f81ed6cce7d0047ad6a7dba72c79f7e86763891a161056f90610daf565b600155005b600190602084519401938184015501610484565b634e487b7160e01b600052604160045260246000fd5b600190602084519401938184015501610434565b82516001600160a01b0316818301556020909201916001016103e4565b600190602084519401938184015501610394565b600190602084519401938184015501610344565b82516001600160a01b0316818301556020909201916001016102f4565b959260009a9794919a9998959299965b6106336080518d60a051610dd4565b358810156106ed576106486080518b8b610dd4565b35906001600160a01b03821682036100b457610667818f60c051610dd4565b35916001600160a01b0381163b156100b4576040516323b872dd60e01b815233600482015230602482015260448101939093526000908390606490829084906001600160a01b03165af19081156106e1576001926106ca926106d2575b50610daf565b970196610624565b6106db90610cd8565b8f6106c4565b6040513d6000823e3d90fd5b90939650999093969998919497986001608051016080526101b3565b60405162461bcd60e51b815260206004820152602860248201527f4d69736d617463686564206c656e6774687320666f7220636f756e7465727061604482015267727479204e46547360c01b6064820152608490fd5b60405162461bcd60e51b815260206004820152602560248201527f4d69736d617463686564206c656e6774687320666f7220696e69746961746f72604482015264204e46547360d81b6064820152608490fd5b346100b45760203660031901126100b45760043580600052600060205260406000209060088201906107e860ff83541615610d3c565b82546001600160a01b0392908316330361091257600080936002860194600487019560039360038901955b82548410156108d9576000915b61082a858b610d81565b905490881b1c8310156108cc57856108428686610d81565b905490891b1c1690868c5416610858828b610d81565b9054908a1b1c833b156100b4576040516323b872dd60e01b81523060048201526001600160a01b039290921660248301526044820152916000908390606490829084905af19081156106e1576001926108b5926108bd5750610daf565b920191610820565b6108c690610cd8565b8d6106c4565b6001909401939150610813565b805460ff191660011790556040518781527ff6b6b4f7a13f02512c1b3aa8dcc4a07d7775a6a4becbd439efcbd37c5408e67f90602090a1005b60405162461bcd60e51b815260206004820152602260248201527f4f6e6c7920696e69746961746f722063616e2063616e63656c20746865207377604482015261061760f41b6064820152608490fd5b346100b45760003660031901126100b4576020600154604051908152f35b346100b45760203660031901126100b457600435600052600060205260406000206109b260ff60088301541615610d3c565b60018101546001600160a01b03163303610bbe57600090815b6005820154831015610aaa576000905b6109e88460078501610d81565b919054600392831b1c831015610a9c57610a058560058601610d81565b9054855491841b1c6001600160a01b0390811693911690610a298360068801610d81565b9054911b1c833b156100b4576040516323b872dd60e01b81523360048201526001600160a01b039290921660248301526044820152916000908390606490829084905af19081156106e157600192610a8592610a8d5750610daf565b9101906109db565b610a9690610cd8565b866106c4565b9390506001915001916109cb565b506003808201916004810191600060028301815b8154831015610b7f576000905b610ad58488610d81565b905490861b1c821015610b7257610aec8484610d81565b905490861b1c6001600160a01b031690610b06818a610d81565b905490871b1c91803b156100b4576040516323b872dd60e01b815230600482015233602482015260448101939093526000908390606490829084905af19081156106e157600192610b5b92610b635750610daf565b910190610acb565b610b6c90610cd8565b8a6106c4565b6001909301929050610abe565b60088501805460ff1916600117905560405160043581527f02f857175b5562dc8e8fe1cc6d39215bf823a07a685f52fba82f1e637d41851390602090a1005b60405162461bcd60e51b815260206004820152602760248201527f4f6e6c7920636f756e74657270617274792063616e20636f6d706c65746520746044820152660686520737761760cc1b6064820152608490fd5b346100b45760803660031901126100b457610c2c610cae565b506024356001600160a01b038116036100b4576064356001600160401b038082116100b457366023830112156100b457816004013590811161058857610c7c601f8201601f191660200184610ceb565b80835236602482840101116100b4576000928160246020940184830137010152604051630a85bd0160e11b8152602090f35b600435906001600160a01b03821682036100b457565b35906001600160a01b03821682036100b457565b6001600160401b03811161058857604052565b90601f801991011681019081106001600160401b0382111761058857604052565b9181601f840112156100b4578235916001600160401b0383116100b4576020808501948460051b0101116100b457565b15610d4357565b60405162461bcd60e51b815260206004820152601660248201527514ddd85c08185b1c9958591e4818dbdb5c1b195d195960521b6044820152606490fd5b8054821015610d995760005260206000200190600090565b634e487b7160e01b600052603260045260246000fd5b6000198114610dbe5760010190565b634e487b7160e01b600052601160045260246000fd5b9190811015610d995760051b0190565b6001600160401b0381116105885760051b60200190565b9291610e0682610de4565b91610e146040519384610ceb565b829481845260208094019160051b81019283116100b457905b828210610e3a5750505050565b838091610e4684610cc4565b815201910190610e2d565b9291610e5c82610de4565b91610e6a6040519384610ceb565b829481845260208094019160051b81019283116100b457905b828210610e905750505050565b81358152908301908301610e83565b9091828110610ead57505050565b600091600052602060002092830192015b828110610eca57505050565b818155600101610ebe565b91908082526020809201929160005b828110610ef2575050505090565b909192938280600192838060a01b03610f0a89610cc4565b16815201950193929101610ee4565b81835290916001600160fb1b0383116100b45760209260051b80928483013701019056fea264697066735822122004edc1e9ba9b9ac1641701d3ec00f50ce1f54fab9bb1fb6b4b0e08ee27df2eaa64736f6c63430008180033",
  "linkReferences": {},
  "deployedLinkReferences": {}
}